{
  "contractName": "EducationCertificateNFT",
  "abi": [
    {
      "inputs": [
        {
          "internalType": "string",
          "name": "name",
          "type": "string"
        },
        {
          "internalType": "string",
          "name": "symbol",
          "type": "string"
        }
      ],
      "stateMutability": "nonpayable",
      "type": "constructor"
    },
    {
      "anonymous": false,
      "inputs": [
        {
          "indexed": true,
          "internalType": "address",
          "name": "owner",
          "type": "address"
        },
        {
          "indexed": true,
          "internalType": "address",
          "name": "approved",
          "type": "address"
        },
        {
          "indexed": true,
          "internalType": "uint256",
          "name": "tokenId",
          "type": "uint256"
        }
      ],
      "name": "Approval",
      "type": "event"
    },
    {
      "anonymous": false,
      "inputs": [
        {
          "indexed": true,
          "internalType": "address",
          "name": "owner",
          "type": "address"
        },
        {
          "indexed": true,
          "internalType": "address",
          "name": "operator",
          "type": "address"
        },
        {
          "indexed": false,
          "internalType": "bool",
          "name": "approved",
          "type": "bool"
        }
      ],
      "name": "ApprovalForAll",
      "type": "event"
    },
    {
      "anonymous": false,
      "inputs": [
        {
          "indexed": false,
          "internalType": "uint256",
          "name": "_fromTokenId",
          "type": "uint256"
        },
        {
          "indexed": false,
          "internalType": "uint256",
          "name": "_toTokenId",
          "type": "uint256"
        }
      ],
      "name": "BatchMetadataUpdate",
      "type": "event"
    },
    {
      "anonymous": false,
      "inputs": [
        {
          "indexed": false,
          "internalType": "uint256",
          "name": "_tokenId",
          "type": "uint256"
        }
      ],
      "name": "MetadataUpdate",
      "type": "event"
    },
    {
      "anonymous": false,
      "inputs": [
        {
          "indexed": true,
          "internalType": "address",
          "name": "previousOwner",
          "type": "address"
        },
        {
          "indexed": true,
          "internalType": "address",
          "name": "newOwner",
          "type": "address"
        }
      ],
      "name": "OwnershipTransferred",
      "type": "event"
    },
    {
      "anonymous": false,
      "inputs": [
        {
          "indexed": true,
          "internalType": "address",
          "name": "from",
          "type": "address"
        },
        {
          "indexed": true,
          "internalType": "address",
          "name": "to",
          "type": "address"
        },
        {
          "indexed": true,
          "internalType": "uint256",
          "name": "tokenId",
          "type": "uint256"
        }
      ],
      "name": "Transfer",
      "type": "event"
    },
    {
      "inputs": [
        {
          "internalType": "address",
          "name": "to",
          "type": "address"
        },
        {
          "internalType": "uint256",
          "name": "tokenId",
          "type": "uint256"
        }
      ],
      "name": "approve",
      "outputs": [],
      "stateMutability": "nonpayable",
      "type": "function"
    },
    {
      "inputs": [
        {
          "internalType": "address",
          "name": "owner",
          "type": "address"
        }
      ],
      "name": "balanceOf",
      "outputs": [
        {
          "internalType": "uint256",
          "name": "",
          "type": "uint256"
        }
      ],
      "stateMutability": "view",
      "type": "function"
    },
    {
      "inputs": [
        {
          "internalType": "uint256",
          "name": "tokenId",
          "type": "uint256"
        }
      ],
      "name": "getApproved",
      "outputs": [
        {
          "internalType": "address",
          "name": "",
          "type": "address"
        }
      ],
      "stateMutability": "view",
      "type": "function"
    },
    {
      "inputs": [
        {
          "internalType": "address",
          "name": "owner",
          "type": "address"
        },
        {
          "internalType": "address",
          "name": "operator",
          "type": "address"
        }
      ],
      "name": "isApprovedForAll",
      "outputs": [
        {
          "internalType": "bool",
          "name": "",
          "type": "bool"
        }
      ],
      "stateMutability": "view",
      "type": "function"
    },
    {
      "inputs": [],
      "name": "name",
      "outputs": [
        {
          "internalType": "string",
          "name": "",
          "type": "string"
        }
      ],
      "stateMutability": "view",
      "type": "function"
    },
    {
      "inputs": [],
      "name": "owner",
      "outputs": [
        {
          "internalType": "address",
          "name": "",
          "type": "address"
        }
      ],
      "stateMutability": "view",
      "type": "function"
    },
    {
      "inputs": [
        {
          "internalType": "uint256",
          "name": "tokenId",
          "type": "uint256"
        }
      ],
      "name": "ownerOf",
      "outputs": [
        {
          "internalType": "address",
          "name": "",
          "type": "address"
        }
      ],
      "stateMutability": "view",
      "type": "function"
    },
    {
      "inputs": [],
      "name": "renounceOwnership",
      "outputs": [],
      "stateMutability": "nonpayable",
      "type": "function"
    },
    {
      "inputs": [
        {
          "internalType": "address",
          "name": "from",
          "type": "address"
        },
        {
          "internalType": "address",
          "name": "to",
          "type": "address"
        },
        {
          "internalType": "uint256",
          "name": "tokenId",
          "type": "uint256"
        }
      ],
      "name": "safeTransferFrom",
      "outputs": [],
      "stateMutability": "nonpayable",
      "type": "function"
    },
    {
      "inputs": [
        {
          "internalType": "address",
          "name": "from",
          "type": "address"
        },
        {
          "internalType": "address",
          "name": "to",
          "type": "address"
        },
        {
          "internalType": "uint256",
          "name": "tokenId",
          "type": "uint256"
        },
        {
          "internalType": "bytes",
          "name": "data",
          "type": "bytes"
        }
      ],
      "name": "safeTransferFrom",
      "outputs": [],
      "stateMutability": "nonpayable",
      "type": "function"
    },
    {
      "inputs": [
        {
          "internalType": "address",
          "name": "operator",
          "type": "address"
        },
        {
          "internalType": "bool",
          "name": "approved",
          "type": "bool"
        }
      ],
      "name": "setApprovalForAll",
      "outputs": [],
      "stateMutability": "nonpayable",
      "type": "function"
    },
    {
      "inputs": [
        {
          "internalType": "bytes4",
          "name": "interfaceId",
          "type": "bytes4"
        }
      ],
      "name": "supportsInterface",
      "outputs": [
        {
          "internalType": "bool",
          "name": "",
          "type": "bool"
        }
      ],
      "stateMutability": "view",
      "type": "function"
    },
    {
      "inputs": [],
      "name": "symbol",
      "outputs": [
        {
          "internalType": "string",
          "name": "",
          "type": "string"
        }
      ],
      "stateMutability": "view",
      "type": "function"
    },
    {
      "inputs": [
        {
          "internalType": "uint256",
          "name": "tokenId",
          "type": "uint256"
        }
      ],
      "name": "tokenURI",
      "outputs": [
        {
          "internalType": "string",
          "name": "",
          "type": "string"
        }
      ],
      "stateMutability": "view",
      "type": "function"
    },
    {
      "inputs": [
        {
          "internalType": "address",
          "name": "from",
          "type": "address"
        },
        {
          "internalType": "address",
          "name": "to",
          "type": "address"
        },
        {
          "internalType": "uint256",
          "name": "tokenId",
          "type": "uint256"
        }
      ],
      "name": "transferFrom",
      "outputs": [],
      "stateMutability": "nonpayable",
      "type": "function"
    },
    {
      "inputs": [
        {
          "internalType": "address",
          "name": "newOwner",
          "type": "address"
        }
      ],
      "name": "transferOwnership",
      "outputs": [],
      "stateMutability": "nonpayable",
      "type": "function"
    },
    {
      "inputs": [
        {
          "internalType": "address",
          "name": "to",
          "type": "address"
        },
        {
          "internalType": "uint256",
          "name": "tokenId",
          "type": "uint256"
        },
        {
          "internalType": "string",
          "name": "tokenURI",
          "type": "string"
        }
      ],
      "name": "mint",
      "outputs": [],
      "stateMutability": "nonpayable",
      "type": "function"
    }
  ],
  "bytecode": "0x60806040523480156200001157600080fd5b506040516200318938038062003189833981810160405281019062000037919062000285565b818181600090805190602001906200005192919062000163565b5080600190805190602001906200006a92919062000163565b5050506200008d620000816200009560201b60201c565b6200009d60201b60201c565b505062000468565b600033905090565b6000600760009054906101000a900473ffffffffffffffffffffffffffffffffffffffff16905081600760006101000a81548173ffffffffffffffffffffffffffffffffffffffff021916908373ffffffffffffffffffffffffffffffffffffffff1602179055508173ffffffffffffffffffffffffffffffffffffffff168173ffffffffffffffffffffffffffffffffffffffff167f8be0079c531659141344cd1fd0a4f28419497f9722a3daafe3b4186f6b6457e060405160405180910390a35050565b82805462000171906200038d565b90600052602060002090601f016020900481019282620001955760008555620001e1565b82601f10620001b057805160ff1916838001178555620001e1565b82800160010185558215620001e1579182015b82811115620001e0578251825591602001919060010190620001c3565b5b509050620001f09190620001f4565b5090565b5b808211156200020f576000816000905550600101620001f5565b5090565b60006200022a620002248462000321565b620002f8565b9050828152602081018484840111156200024357600080fd5b6200025084828562000357565b509392505050565b600082601f8301126200026a57600080fd5b81516200027c84826020860162000213565b91505092915050565b600080604083850312156200029957600080fd5b600083015167ffffffffffffffff811115620002b457600080fd5b620002c28582860162000258565b925050602083015167ffffffffffffffff811115620002e057600080fd5b620002ee8582860162000258565b9150509250929050565b60006200030462000317565b9050620003128282620003c3565b919050565b6000604051905090565b600067ffffffffffffffff8211156200033f576200033e62000428565b5b6200034a8262000457565b9050602081019050919050565b60005b83811015620003775780820151818401526020810190506200035a565b8381111562000387576000848401525b50505050565b60006002820490506001821680620003a657607f821691505b60208210811415620003bd57620003bc620003f9565b5b50919050565b620003ce8262000457565b810181811067ffffffffffffffff82111715620003f057620003ef62000428565b5b80604052505050565b7f4e487b7100000000000000000000000000000000000000000000000000000000600052602260045260246000fd5b7f4e487b7100000000000000000000000000000000000000000000000000000000600052604160045260246000fd5b6000601f19601f8301169050919050565b612d1180620004786000396000f3fe608060405234801561001057600080fd5b506004361061010b5760003560e01c8063715018a6116100a2578063b88d4fde11610071578063b88d4fde146102a4578063c87b56dd146102c0578063d3fc9864146102f0578063e985e9c51461030c578063f2fde38b1461033c5761010b565b8063715018a6146102425780638da5cb5b1461024c57806395d89b411461026a578063a22cb465146102885761010b565b806323b872dd116100de57806323b872dd146101aa57806342842e0e146101c65780636352211e146101e257806370a08231146102125761010b565b806301ffc9a71461011057806306fdde0314610140578063081812fc1461015e578063095ea7b31461018e575b600080fd5b61012a600480360381019061012591906120c1565b610358565b6040516101379190612481565b60405180910390f35b6101486103b9565b604051610155919061249c565b60405180910390f35b61017860048036038101906101739190612113565b61044b565b604051610185919061241a565b60405180910390f35b6101a860048036038101906101a3919061201e565b610491565b005b6101c460048036038101906101bf9190611f18565b6105a9565b005b6101e060048036038101906101db9190611f18565b610609565b005b6101fc60048036038101906101f79190612113565b610629565b604051610209919061241a565b60405180910390f35b61022c60048036038101906102279190611eb3565b6106b0565b604051610239919061267e565b60405180910390f35b61024a610768565b005b61025461077c565b604051610261919061241a565b60405180910390f35b6102726107a6565b60405161027f919061249c565b60405180910390f35b6102a2600480360381019061029d9190611fe2565b610838565b005b6102be60048036038101906102b99190611f67565b61084e565b005b6102da60048036038101906102d59190612113565b6108b0565b6040516102e7919061249c565b60405180910390f35b61030a6004803603810190610305919061205a565b6109c3565b005b61032660048036038101906103219190611edc565b6109e4565b6040516103339190612481565b60405180910390f35b61035660048036038101906103519190611eb3565b610a78565b005b6000634906490660e01b7bffffffffffffffffffffffffffffffffffffffffffffffffffffffff1916827bffffffffffffffffffffffffffffffffffffffffffffffffffffffff191614806103b257506103b182610afc565b5b9050919050565b6060600080546103c890612819565b80601f01602080910402602001604051908101604052809291908181526020018280546103f490612819565b80156104415780601f1061041657610100808354040283529160200191610441565b820191906000526020600020905b81548152906001019060200180831161042457829003601f168201915b5050505050905090565b600061045682610bde565b6004600083815260200190815260200160002060009054906101000a900473ffffffffffffffffffffffffffffffffffffffff169050919050565b600061049c82610629565b90508073ffffffffffffffffffffffffffffffffffffffff168373ffffffffffffffffffffffffffffffffffffffff16141561050d576040517f08c379a00000000000000000000000000000000000000000000000000000000081526004016105049061263e565b60405180910390fd5b8073ffffffffffffffffffffffffffffffffffffffff1661052c610c29565b73ffffffffffffffffffffffffffffffffffffffff16148061055b575061055a81610555610c29565b6109e4565b5b61059a576040517f08c379a00000000000000000000000000000000000000000000000000000000081526004016105919061265e565b60405180910390fd5b6105a48383610c31565b505050565b6105ba6105b4610c29565b82610cea565b6105f9576040517f08c379a00000000000000000000000000000000000000000000000000000000081526004016105f0906124be565b60405180910390fd5b610604838383610d7f565b505050565b6106248383836040518060200160405280600081525061084e565b505050565b60008061063583611079565b9050600073ffffffffffffffffffffffffffffffffffffffff168173ffffffffffffffffffffffffffffffffffffffff1614156106a7576040517f08c379a000000000000000000000000000000000000000000000000000000000815260040161069e9061261e565b60405180910390fd5b80915050919050565b60008073ffffffffffffffffffffffffffffffffffffffff168273ffffffffffffffffffffffffffffffffffffffff161415610721576040517f08c379a00000000000000000000000000000000000000000000000000000000081526004016107189061259e565b60405180910390fd5b600360008373ffffffffffffffffffffffffffffffffffffffff1673ffffffffffffffffffffffffffffffffffffffff168152602001908152602001600020549050919050565b6107706110b6565b61077a6000611134565b565b6000600760009054906101000a900473ffffffffffffffffffffffffffffffffffffffff16905090565b6060600180546107b590612819565b80601f01602080910402602001604051908101604052809291908181526020018280546107e190612819565b801561082e5780601f106108035761010080835404028352916020019161082e565b820191906000526020600020905b81548152906001019060200180831161081157829003601f168201915b5050505050905090565b61084a610843610c29565b83836111fa565b5050565b61085f610859610c29565b83610cea565b61089e576040517f08c379a0000000000000000000000000000000000000000000000000000000008152600401610895906124be565b60405180910390fd5b6108aa84848484611367565b50505050565b60606108bb82610bde565b60006006600084815260200190815260200160002080546108db90612819565b80601f016020809104026020016040519081016040528092919081815260200182805461090790612819565b80156109545780601f1061092957610100808354040283529160200191610954565b820191906000526020600020905b81548152906001019060200180831161093757829003601f168201915b5050505050905060006109656113c3565b905060008151141561097b5781925050506109be565b6000825111156109b05780826040516020016109989291906123f6565b604051602081830303815290604052925050506109be565b6109b9846113da565b925050505b919050565b6109cb6110b6565b6109d58383611442565b6109df8282611660565b505050565b6000600560008473ffffffffffffffffffffffffffffffffffffffff1673ffffffffffffffffffffffffffffffffffffffff16815260200190815260200160002060008373ffffffffffffffffffffffffffffffffffffffff1673ffffffffffffffffffffffffffffffffffffffff16815260200190815260200160002060009054906101000a900460ff16905092915050565b610a806110b6565b600073ffffffffffffffffffffffffffffffffffffffff168173ffffffffffffffffffffffffffffffffffffffff161415610af0576040517f08c379a0000000000000000000000000000000000000000000000000000000008152600401610ae7906124fe565b60405180910390fd5b610af981611134565b50565b60007f80ac58cd000000000000000000000000000000000000000000000000000000007bffffffffffffffffffffffffffffffffffffffffffffffffffffffff1916827bffffffffffffffffffffffffffffffffffffffffffffffffffffffff19161480610bc757507f5b5e139f000000000000000000000000000000000000000000000000000000007bffffffffffffffffffffffffffffffffffffffffffffffffffffffff1916827bffffffffffffffffffffffffffffffffffffffffffffffffffffffff1916145b80610bd75750610bd68261170b565b5b9050919050565b610be781611775565b610c26576040517f08c379a0000000000000000000000000000000000000000000000000000000008152600401610c1d9061261e565b60405180910390fd5b50565b600033905090565b816004600083815260200190815260200160002060006101000a81548173ffffffffffffffffffffffffffffffffffffffff021916908373ffffffffffffffffffffffffffffffffffffffff160217905550808273ffffffffffffffffffffffffffffffffffffffff16610ca483610629565b73ffffffffffffffffffffffffffffffffffffffff167f8c5be1e5ebec7d5bd14f71427d1e84f3dd0314c0f7b2291e5b200ac8c7c3b92560405160405180910390a45050565b600080610cf683610629565b90508073ffffffffffffffffffffffffffffffffffffffff168473ffffffffffffffffffffffffffffffffffffffff161480610d385750610d3781856109e4565b5b80610d7657508373ffffffffffffffffffffffffffffffffffffffff16610d5e8461044b565b73ffffffffffffffffffffffffffffffffffffffff16145b91505092915050565b8273ffffffffffffffffffffffffffffffffffffffff16610d9f82610629565b73ffffffffffffffffffffffffffffffffffffffff1614610df5576040517f08c379a0000000000000000000000000000000000000000000000000000000008152600401610dec9061251e565b60405180910390fd5b600073ffffffffffffffffffffffffffffffffffffffff168273ffffffffffffffffffffffffffffffffffffffff161415610e65576040517f08c379a0000000000000000000000000000000000000000000000000000000008152600401610e5c9061255e565b60405180910390fd5b610e7283838360016117b6565b8273ffffffffffffffffffffffffffffffffffffffff16610e9282610629565b73ffffffffffffffffffffffffffffffffffffffff1614610ee8576040517f08c379a0000000000000000000000000000000000000000000000000000000008152600401610edf9061251e565b60405180910390fd5b6004600082815260200190815260200160002060006101000a81549073ffffffffffffffffffffffffffffffffffffffff02191690556001600360008573ffffffffffffffffffffffffffffffffffffffff1673ffffffffffffffffffffffffffffffffffffffff168152602001908152602001600020600082825403925050819055506001600360008473ffffffffffffffffffffffffffffffffffffffff1673ffffffffffffffffffffffffffffffffffffffff16815260200190815260200160002060008282540192505081905550816002600083815260200190815260200160002060006101000a81548173ffffffffffffffffffffffffffffffffffffffff021916908373ffffffffffffffffffffffffffffffffffffffff160217905550808273ffffffffffffffffffffffffffffffffffffffff168473ffffffffffffffffffffffffffffffffffffffff167fddf252ad1be2c89b69c2b068fc378daa952ba7f163c4a11628f55a4df523b3ef60405160405180910390a461107483838360016117bc565b505050565b60006002600083815260200190815260200160002060009054906101000a900473ffffffffffffffffffffffffffffffffffffffff169050919050565b6110be610c29565b73ffffffffffffffffffffffffffffffffffffffff166110dc61077c565b73ffffffffffffffffffffffffffffffffffffffff1614611132576040517f08c379a0000000000000000000000000000000000000000000000000000000008152600401611129906125fe565b60405180910390fd5b565b6000600760009054906101000a900473ffffffffffffffffffffffffffffffffffffffff16905081600760006101000a81548173ffffffffffffffffffffffffffffffffffffffff021916908373ffffffffffffffffffffffffffffffffffffffff1602179055508173ffffffffffffffffffffffffffffffffffffffff168173ffffffffffffffffffffffffffffffffffffffff167f8be0079c531659141344cd1fd0a4f28419497f9722a3daafe3b4186f6b6457e060405160405180910390a35050565b8173ffffffffffffffffffffffffffffffffffffffff168373ffffffffffffffffffffffffffffffffffffffff161415611269576040517f08c379a00000000000000000000000000000000000000000000000000000000081526004016112609061257e565b60405180910390fd5b80600560008573ffffffffffffffffffffffffffffffffffffffff1673ffffffffffffffffffffffffffffffffffffffff16815260200190815260200160002060008473ffffffffffffffffffffffffffffffffffffffff1673ffffffffffffffffffffffffffffffffffffffff16815260200190815260200160002060006101000a81548160ff0219169083151502179055508173ffffffffffffffffffffffffffffffffffffffff168373ffffffffffffffffffffffffffffffffffffffff167f17307eab39ab6107e8899845ad3d59bd9653f200f220920489ca2b5937696c318360405161135a9190612481565b60405180910390a3505050565b611372848484610d7f565b61137e848484846117c2565b6113bd576040517f08c379a00000000000000000000000000000000000000000000000000000000081526004016113b4906124de565b60405180910390fd5b50505050565b606060405180602001604052806000815250905090565b60606113e582610bde565b60006113ef6113c3565b9050600081511161140f576040518060200160405280600081525061143a565b8061141984611959565b60405160200161142a9291906123f6565b6040516020818303038152906040525b915050919050565b600073ffffffffffffffffffffffffffffffffffffffff168273ffffffffffffffffffffffffffffffffffffffff1614156114b2576040517f08c379a00000000000000000000000000000000000000000000000000000000081526004016114a9906125de565b60405180910390fd5b6114bb81611775565b156114fb576040517f08c379a00000000000000000000000000000000000000000000000000000000081526004016114f29061253e565b60405180910390fd5b6115096000838360016117b6565b61151281611775565b15611552576040517f08c379a00000000000000000000000000000000000000000000000000000000081526004016115499061253e565b60405180910390fd5b6001600360008473ffffffffffffffffffffffffffffffffffffffff1673ffffffffffffffffffffffffffffffffffffffff16815260200190815260200160002060008282540192505081905550816002600083815260200190815260200160002060006101000a81548173ffffffffffffffffffffffffffffffffffffffff021916908373ffffffffffffffffffffffffffffffffffffffff160217905550808273ffffffffffffffffffffffffffffffffffffffff16600073ffffffffffffffffffffffffffffffffffffffff167fddf252ad1be2c89b69c2b068fc378daa952ba7f163c4a11628f55a4df523b3ef60405160405180910390a461165c6000838360016117bc565b5050565b61166982611775565b6116a8576040517f08c379a000000000000000000000000000000000000000000000000000000000815260040161169f906125be565b60405180910390fd5b806006600084815260200190815260200160002090805190602001906116cf929190611cd7565b507ff8e1a15aba9398e019f0b49df1a4fde98ee17ae345cb5f6b5e2c27f5033e8ce7826040516116ff919061267e565b60405180910390a15050565b60007f01ffc9a7000000000000000000000000000000000000000000000000000000007bffffffffffffffffffffffffffffffffffffffffffffffffffffffff1916827bffffffffffffffffffffffffffffffffffffffffffffffffffffffff1916149050919050565b60008073ffffffffffffffffffffffffffffffffffffffff1661179783611079565b73ffffffffffffffffffffffffffffffffffffffff1614159050919050565b50505050565b50505050565b60006117e38473ffffffffffffffffffffffffffffffffffffffff16611a7d565b1561194c578373ffffffffffffffffffffffffffffffffffffffff1663150b7a0261180c610c29565b8786866040518563ffffffff1660e01b815260040161182e9493929190612435565b602060405180830381600087803b15801561184857600080fd5b505af192505050801561187957506040513d601f19601f8201168201806040525081019061187691906120ea565b60015b6118fc573d80600081146118a9576040519150601f19603f3d011682016040523d82523d6000602084013e6118ae565b606091505b506000815114156118f4576040517f08c379a00000000000000000000000000000000000000000000000000000000081526004016118eb906124de565b60405180910390fd5b805181602001fd5b63150b7a0260e01b7bffffffffffffffffffffffffffffffffffffffffffffffffffffffff1916817bffffffffffffffffffffffffffffffffffffffffffffffffffffffff191614915050611951565b600190505b949350505050565b60606000600161196884611aa0565b01905060008167ffffffffffffffff8111156119ad577f4e487b7100000000000000000000000000000000000000000000000000000000600052604160045260246000fd5b6040519080825280601f01601f1916602001820160405280156119df5781602001600182028036833780820191505090505b509050600082602001820190505b600115611a72578080600190039150507f3031323334353637383961626364656600000000000000000000000000000000600a86061a8153600a8581611a5c577f4e487b7100000000000000000000000000000000000000000000000000000000600052601260045260246000fd5b0494506000851415611a6d57611a72565b6119ed565b819350505050919050565b6000808273ffffffffffffffffffffffffffffffffffffffff163b119050919050565b600080600090507a184f03e93ff9f4daa797ed6e38ed64bf6a1f0100000000000000008310611b24577a184f03e93ff9f4daa797ed6e38ed64bf6a1f0100000000000000008381611b1a577f4e487b7100000000000000000000000000000000000000000000000000000000600052601260045260246000fd5b0492506040810190505b6d04ee2d6d415b85acef81000000008310611b87576d04ee2d6d415b85acef81000000008381611b7d577f4e487b7100000000000000000000000000000000000000000000000000000000600052601260045260246000fd5b0492506020810190505b662386f26fc100008310611bdc57662386f26fc100008381611bd2577f4e487b7100000000000000000000000000000000000000000000000000000000600052601260045260246000fd5b0492506010810190505b6305f5e1008310611c2b576305f5e1008381611c21577f4e487b7100000000000000000000000000000000000000000000000000000000600052601260045260246000fd5b0492506008810190505b6127108310611c76576127108381611c6c577f4e487b7100000000000000000000000000000000000000000000000000000000600052601260045260246000fd5b0492506004810190505b60648310611cbf5760648381611cb5577f4e487b7100000000000000000000000000000000000000000000000000000000600052601260045260246000fd5b0492506002810190505b600a8310611cce576001810190505b80915050919050565b828054611ce390612819565b90600052602060002090601f016020900481019282611d055760008555611d4c565b82601f10611d1e57805160ff1916838001178555611d4c565b82800160010185558215611d4c579182015b82811115611d4b578251825591602001919060010190611d30565b5b509050611d599190611d5d565b5090565b5b80821115611d76576000816000905550600101611d5e565b5090565b6000611d8d611d88846126be565b612699565b905082815260208101848484011115611da557600080fd5b611db08482856127d7565b509392505050565b6000611dcb611dc6846126ef565b612699565b905082815260208101848484011115611de357600080fd5b611dee8482856127d7565b509392505050565b600081359050611e0581612c7f565b92915050565b600081359050611e1a81612c96565b92915050565b600081359050611e2f81612cad565b92915050565b600081519050611e4481612cad565b92915050565b600082601f830112611e5b57600080fd5b8135611e6b848260208601611d7a565b91505092915050565b600082601f830112611e8557600080fd5b8135611e95848260208601611db8565b91505092915050565b600081359050611ead81612cc4565b92915050565b600060208284031215611ec557600080fd5b6000611ed384828501611df6565b91505092915050565b60008060408385031215611eef57600080fd5b6000611efd85828601611df6565b9250506020611f0e85828601611df6565b9150509250929050565b600080600060608486031215611f2d57600080fd5b6000611f3b86828701611df6565b9350506020611f4c86828701611df6565b9250506040611f5d86828701611e9e565b9150509250925092565b60008060008060808587031215611f7d57600080fd5b6000611f8b87828801611df6565b9450506020611f9c87828801611df6565b9350506040611fad87828801611e9e565b925050606085013567ffffffffffffffff811115611fca57600080fd5b611fd687828801611e4a565b91505092959194509250565b60008060408385031215611ff557600080fd5b600061200385828601611df6565b925050602061201485828601611e0b565b9150509250929050565b6000806040838503121561203157600080fd5b600061203f85828601611df6565b925050602061205085828601611e9e565b9150509250929050565b60008060006060848603121561206f57600080fd5b600061207d86828701611df6565b935050602061208e86828701611e9e565b925050604084013567ffffffffffffffff8111156120ab57600080fd5b6120b786828701611e74565b9150509250925092565b6000602082840312156120d357600080fd5b60006120e184828501611e20565b91505092915050565b6000602082840312156120fc57600080fd5b600061210a84828501611e35565b91505092915050565b60006020828403121561212557600080fd5b600061213384828501611e9e565b91505092915050565b61214581612763565b82525050565b61215481612775565b82525050565b600061216582612720565b61216f8185612736565b935061217f8185602086016127e6565b612188816128da565b840191505092915050565b600061219e8261272b565b6121a88185612747565b93506121b88185602086016127e6565b6121c1816128da565b840191505092915050565b60006121d78261272b565b6121e18185612758565b93506121f18185602086016127e6565b80840191505092915050565b600061220a602d83612747565b9150612215826128eb565b604082019050919050565b600061222d603283612747565b91506122388261293a565b604082019050919050565b6000612250602683612747565b915061225b82612989565b604082019050919050565b6000612273602583612747565b915061227e826129d8565b604082019050919050565b6000612296601c83612747565b91506122a182612a27565b602082019050919050565b60006122b9602483612747565b91506122c482612a50565b604082019050919050565b60006122dc601983612747565b91506122e782612a9f565b602082019050919050565b60006122ff602983612747565b915061230a82612ac8565b604082019050919050565b6000612322602e83612747565b915061232d82612b17565b604082019050919050565b6000612345602083612747565b915061235082612b66565b602082019050919050565b6000612368602083612747565b915061237382612b8f565b602082019050919050565b600061238b601883612747565b915061239682612bb8565b602082019050919050565b60006123ae602183612747565b91506123b982612be1565b604082019050919050565b60006123d1603d83612747565b91506123dc82612c30565b604082019050919050565b6123f0816127cd565b82525050565b600061240282856121cc565b915061240e82846121cc565b91508190509392505050565b600060208201905061242f600083018461213c565b92915050565b600060808201905061244a600083018761213c565b612457602083018661213c565b61246460408301856123e7565b8181036060830152612476818461215a565b905095945050505050565b6000602082019050612496600083018461214b565b92915050565b600060208201905081810360008301526124b68184612193565b905092915050565b600060208201905081810360008301526124d7816121fd565b9050919050565b600060208201905081810360008301526124f781612220565b9050919050565b6000602082019050818103600083015261251781612243565b9050919050565b6000602082019050818103600083015261253781612266565b9050919050565b6000602082019050818103600083015261255781612289565b9050919050565b60006020820190508181036000830152612577816122ac565b9050919050565b60006020820190508181036000830152612597816122cf565b9050919050565b600060208201905081810360008301526125b7816122f2565b9050919050565b600060208201905081810360008301526125d781612315565b9050919050565b600060208201905081810360008301526125f781612338565b9050919050565b600060208201905081810360008301526126178161235b565b9050919050565b600060208201905081810360008301526126378161237e565b9050919050565b60006020820190508181036000830152612657816123a1565b9050919050565b60006020820190508181036000830152612677816123c4565b9050919050565b600060208201905061269360008301846123e7565b92915050565b60006126a36126b4565b90506126af828261284b565b919050565b6000604051905090565b600067ffffffffffffffff8211156126d9576126d86128ab565b5b6126e2826128da565b9050602081019050919050565b600067ffffffffffffffff82111561270a576127096128ab565b5b612713826128da565b9050602081019050919050565b600081519050919050565b600081519050919050565b600082825260208201905092915050565b600082825260208201905092915050565b600081905092915050565b600061276e826127ad565b9050919050565b60008115159050919050565b60007fffffffff0000000000000000000000000000000000000000000000000000000082169050919050565b600073ffffffffffffffffffffffffffffffffffffffff82169050919050565b6000819050919050565b82818337600083830152505050565b60005b838110156128045780820151818401526020810190506127e9565b83811115612813576000848401525b50505050565b6000600282049050600182168061283157607f821691505b602082108114156128455761284461287c565b5b50919050565b612854826128da565b810181811067ffffffffffffffff82111715612873576128726128ab565b5b80604052505050565b7f4e487b7100000000000000000000000000000000000000000000000000000000600052602260045260246000fd5b7f4e487b7100000000000000000000000000000000000000000000000000000000600052604160045260246000fd5b6000601f19601f8301169050919050565b7f4552433732313a2063616c6c6572206973206e6f7420746f6b656e206f776e6560008201527f72206f7220617070726f76656400000000000000000000000000000000000000602082015250565b7f4552433732313a207472616e7366657220746f206e6f6e20455243373231526560008201527f63656976657220696d706c656d656e7465720000000000000000000000000000602082015250565b7f4f776e61626c653a206e6577206f776e657220697320746865207a65726f206160008201527f6464726573730000000000000000000000000000000000000000000000000000602082015250565b7f4552433732313a207472616e736665722066726f6d20696e636f72726563742060008201527f6f776e6572000000000000000000000000000000000000000000000000000000602082015250565b7f4552433732313a20746f6b656e20616c7265616479206d696e74656400000000600082015250565b7f4552433732313a207472616e7366657220746f20746865207a65726f2061646460008201527f7265737300000000000000000000000000000000000000000000000000000000602082015250565b7f4552433732313a20617070726f766520746f2063616c6c657200000000000000600082015250565b7f4552433732313a2061646472657373207a65726f206973206e6f74206120766160008201527f6c6964206f776e65720000000000000000000000000000000000000000000000602082015250565b7f45524337323155524953746f726167653a2055524920736574206f66206e6f6e60008201527f6578697374656e7420746f6b656e000000000000000000000000000000000000602082015250565b7f4552433732313a206d696e7420746f20746865207a65726f2061646472657373600082015250565b7f4f776e61626c653a2063616c6c6572206973206e6f7420746865206f776e6572600082015250565b7f4552433732313a20696e76616c696420746f6b656e2049440000000000000000600082015250565b7f4552433732313a20617070726f76616c20746f2063757272656e74206f776e6560008201527f7200000000000000000000000000000000000000000000000000000000000000602082015250565b7f4552433732313a20617070726f76652063616c6c6572206973206e6f7420746f60008201527f6b656e206f776e6572206f7220617070726f76656420666f7220616c6c000000602082015250565b612c8881612763565b8114612c9357600080fd5b50565b612c9f81612775565b8114612caa57600080fd5b50565b612cb681612781565b8114612cc157600080fd5b50565b612ccd816127cd565b8114612cd857600080fd5b5056fea2646970667358221220cf7071800e1bf91f6f8b5e0061cfe02e0609418b653c558e665d64b7acc0b89064736f6c63430008040033",
  "immutableReferences": {},
  "source": "// SPDX-License-Identifier: MIT\npragma solidity ^0.8.4;\n\nimport \"@openzeppelin/contracts/token/ERC721/extensions/ERC721URIStorage.sol\";\nimport \"@openzeppelin/contracts/access/Ownable.sol\";\n\ncontract EducationCertificateNFT is ERC721URIStorage, Ownable {\n    constructor(string memory name, string memory symbol) ERC721(name, symbol) {}\n\n    function mint(address to, uint256 tokenId, string memory tokenURI) external onlyOwner {\n        _mint(to, tokenId);\n        _setTokenURI(tokenId, tokenURI);\n    }\n}\n",
  "sourcePath": "/Users/ben/Desktop/Project/contracts/EducationCertificateNFT.sol",
  "compiler": {
    "name": "solc",
    "version": "0.8.4+commit.c7e474f2.Emscripten.clang"
  },
  "schemaVersion": "3.4.15",
  "updatedAt": "2023-08-31T12:29:30.672Z",
  "devdoc": {
    "kind": "dev",
    "methods": {
      "approve(address,uint256)": {
        "details": "See {IERC721-approve}."
      },
      "balanceOf(address)": {
        "details": "See {IERC721-balanceOf}."
      },
      "getApproved(uint256)": {
        "details": "See {IERC721-getApproved}."
      },
      "isApprovedForAll(address,address)": {
        "details": "See {IERC721-isApprovedForAll}."
      },
      "name()": {
        "details": "See {IERC721Metadata-name}."
      },
      "owner()": {
        "details": "Returns the address of the current owner."
      },
      "ownerOf(uint256)": {
        "details": "See {IERC721-ownerOf}."
      },
      "renounceOwnership()": {
        "details": "Leaves the contract without owner. It will not be possible to call `onlyOwner` functions. Can only be called by the current owner. NOTE: Renouncing ownership will leave the contract without an owner, thereby disabling any functionality that is only available to the owner."
      },
      "safeTransferFrom(address,address,uint256)": {
        "details": "See {IERC721-safeTransferFrom}."
      },
      "safeTransferFrom(address,address,uint256,bytes)": {
        "details": "See {IERC721-safeTransferFrom}."
      },
      "setApprovalForAll(address,bool)": {
        "details": "See {IERC721-setApprovalForAll}."
      },
      "supportsInterface(bytes4)": {
        "details": "See {IERC165-supportsInterface}"
      },
      "symbol()": {
        "details": "See {IERC721Metadata-symbol}."
      },
      "tokenURI(uint256)": {
        "details": "See {IERC721Metadata-tokenURI}."
      },
      "transferFrom(address,address,uint256)": {
        "details": "See {IERC721-transferFrom}."
      },
      "transferOwnership(address)": {
        "details": "Transfers ownership of the contract to a new account (`newOwner`). Can only be called by the current owner."
      }
    },
    "version": 1
  },
  "userdoc": {
    "kind": "user",
    "methods": {},
    "version": 1
  }
}